:020000040800F2
:1000000000000120C5020008CB020008CF02000852
:1000100041030008450300088D03000800000000AC
:10002000000000000000000000000000D5030008F0
:10003000D903000800000000DD030008210F0008BC
:10004000F1030008F1030008F1030008F1030008C0
:10005000F1030008F1030008F1030008F1030008B0
:10006000F1030008F1030008F1030008F1030008A0
:10007000F1030008F1030008F1030008F103000890
:10008000F1030008F1030008F1030008000000007C
:10009000000000000000000000000000F103000864
:1000A000F1030008F1030008F1030008F103000860
:1000B000F1030008F1030008F1030008F103000850
:1000C000F1030008F1030008F1030008F103000840
:1000D000F1030008010F0008F10300080000000010
:1000E000F1030008F1030008F1030008000000001C
:1000F000000000000000000000000000F103000804
:1001000000000000F1030008F1030008F1030008FB
:1001100000000000000000000000000000000000DF
:10012000F1030008F1030008F1030008F1030008DF
:10013000F1030008000000000000000000000000C3
:10014000000000000000000000000000F1030008B3
:10015000F1030008F1030008F1030008F1030008AF
:10016000F1030008F1030008000000000000000097
:10017000000000000000000000000000000000007F
:1001800000000000F1030008000000000000000073
:10019000F103000800B583B000F03EFC384B394A4B
:1001A0001360394A1360394906E052F8041B43F8DA
:1001B000041B9842F9D86146354B994205D20A682A
:1001C0004B6801F10C0C8868F3E72E4B1A68314B31
:1001D0009A4200D0FEE72C4B1A682F4B9A42F9D175
:1001E000274B2E4A13602E4A13602E4A00E0024627
:1001F0002D4B9A4209D2104650F8083B516899425B
:10020000F5D9002243F8042BF9E7244B1B6813B9F6
:10021000234B1B6803B1FEE700F00AFC694601A806
:1002200000F008FB214C224BE41AA410002504E046
:100230001F4B53F8253098470135AC42F8DC1D4C74
:100240001D4BE41AA410002504E01B4B53F8253085
:1002500098470135AC42F8DC0099019800F0FEFCAB
:100260000546164C164BE41AA41004E0013C144B4E
:1002700053F824309847002CF8DC284600F0ACFAFC
:10028000BABADECA0000002074000020F40300089F
:100290000C04000878563412325476987800002006
:1002A000440100200C0400081C0400081C04000881
:1002B0001C0400081C0400081C0400081C0400089E
:1002C0001C04000808B5FFF765FF00BEFEE71EF03E
:1002D000040F0CBFEFF30880EFF309807146414A29
:1002E00010472DE9F04182B004460D46124B5F6B7A
:1002F000D3F838809E6A1B6B13F0020F03D00E4BAD
:10030000DB6A002B0BDB0D4800F0D2FA0095434668
:100310003A463146204600F0F5FA00BEFEE74BF6BD
:10032000AB6100F069FB0028EDD0034B4FF00042B9
:10033000DA6202B0BDE8F08100ED00E0A824000818
:1003400000BEFEE71EF0040F0CBFEFF30880EFF3D2
:1003500009807146244A10472DE9F04182B00446D5
:100360000D46084B5F6BD3F838809E6A064800F054
:100370009FFA009543463A463146204600F0C2FABD
:1003800000BEFEE700ED00E0B82400081EF0040FF8
:100390000CBFEFF30880EFF309807146134A104752
:1003A0002DE9F04182B004460D46084B5F6BD3F84F
:1003B00038809E6A064800F07BFA009543463A462C
:1003C0003146204600F09EFA00BEFEE700ED00E058
:1003D000C424000800BEFEE700BEFEE700BEFEE744
:1003E00070470000E302000859030008A103000859
:0403F00000BEFEE766
:1003F400642500080000002078000020642500081F
:1004040000000010000000107800002048010020C7
:080414000000001000000010C0
:10042000014B1868704700BF7C000020274BDB6839
:1004300013F0100F07D0264AD36943F01003D3619D
:10044000224B1022DA60214BDB6813F0200F07D01B
:100450001F4AD36943F00803D3611C4B2022DA60A2
:100460001A4BDB6813F0400F07D0194AD36943F0E9
:100470000403D361154B4022DA60144BDB6813F0A0
:10048000800F07D0124AD36943F00203D3610F4BA8
:100490008022DA600D4BDB6813F4807F08D00C4AB1
:1004A000D36943F00103D361084B4FF48072DA60E3
:1004B000064BDB6813F0020F07D0054AD36943F0FF
:1004C0002003D361014B0222DA607047003C0240F6
:1004D0008000002038B504460D4600F17843B3F59E
:1004E000802F06D300F1604303F50843B3F5047F82
:1004F0000CD2094B1A6922F440721A611A691A6106
:100500001A6942F001021A61257038BD40F2BB2120
:10051000024800F057F9ECE7003C0240E8220008EE
:1005200038B504460D4600F17843B3F5802F06D365
:1005300000F1604303F50843B3F5047F0ED20A4B84
:100540001A6922F440721A611A6942F480721A61BF
:100550001A6942F001021A61258038BD40F2A221D9
:10056000024800F02FF9EAE7003C0240E8220008C8
:1005700038B504460D4600F17843B3F5802F06D315
:1005800000F1604303F50843B3F5047F0ED20A4B34
:100590001A6922F440721A611A6942F400721A61EF
:1005A0001A6942F001021A61256038BD40F28921C2
:1005B000024800F007F9EAE7003C0240E8220008A0
:1005C00070B5044616461D4600F17843B3F5802FFA
:1005D00006D300F1604303F50843B3F5047F11D25D
:1005E0000B490B6923F440730B610B6943F44073AF
:1005F0000B610B6943F001030B612660BFF36F8F42
:10060000656070BD40F26721024800F0DBF8E7E763
:10061000003C0240E8220008094B1B69002B01DB6B
:1006200000207047064B074A5A6002F188325A6030
:100630001B69002B01DB002070470120704700BFC1
:10064000003C024023016745034A136943F000431D
:1006500013610020704700BF003C024038B50446DB
:10066000144B0022DA61FFF7DBFE0546124BDB6814
:1006700013F4803F0AD0B4F1FF3FF7D024B1FFF765
:10068000CFFE401BA042F1D903200DE00A4BDB68EE
:1006900013F0010F02D0084B0122DA60064BDB6831
:1006A00013F4F97F01D1002038BDFFF7BFFE012010
:1006B000FAE700BF80000020003C0240F8B5164673
:1006C0001E4A127E012A37D004460D461F461B4B98
:1006D00001221A7603281BD84CF25030FFF7BEFFD8
:1006E00090B9D4B1012C1DD0022C20D032463B460B
:1006F0002846FFF765FF4CF25030FFF7AFFF104A76
:10070000136923F0010313610C4B00221A76F8BD24
:10071000A4210C4800F056F8DEE7F1B22846FFF7B6
:10072000D9FEE8E7B1B22846FFF7FAFEE3E7314623
:100730002846FFF71DFFDEE70220E8E780000020E3
:10074000003C0240E822000838B505460C46052862
:1007500009D8032C0DD8ACB1012C2BD0022C0ED013
:100760004FF440700FE040F2DB31144800F02AF8FB
:10077000EFE74FF47771114800F024F8EBE74FF4FE
:10078000007000E000200E4B196921F440711961DE
:100790001A6902431A611A6922F0F8021A6118698B
:1007A00040EAC50040F0020018611A6942F4803244
:1007B0001A6138BD4FF48070E5E700BF18230008C8
:1007C000003C024008B50A460146024800F070F8B5
:1007D00000F004F84C230008FEE7000008B50348C9
:1007E00000F080F80120FFF7F7FF00BF7823000832
:1007F00008B503460C4A12685AB10B4A1068033315
:1008000023F003030344094A934206D8064A1360BF
:1008100008BD054A06491160EFE701F075F80C23A1
:1008200003604FF0FF30F3E7A000002000FC002041
:100830004801002001230360014B0B60704700BF9B
:10084000040000202DE9F04385B004460F464356CE
:100850003BBB042528462146ABBE0446384605B0BE
:10086000BDE8F08314F901CB03F110026A4402F8E9
:1008700010CC0133AB42F5D310336B44002203F8A4
:10088000102C4FF00408E94640464946ABBE80466E
:10089000761B002EE2D03546102E28BF10250023EF
:1008A000E8E70E46F5E708B5FFF7CCFF08BD000006
:1008B0000FB400B583B004AB53F8042B019380212F
:1008C000074801F063F8002804DC03B05DF804EB8E
:1008D00004B0704701460248FFF7E5FFF5E700BFA7
:1008E000AC00002010B5044601F01CF8014620467B
:1008F000FFF7D9FF01210248FFF7D5FF10BD00BF68
:1009000024240008F8B504460D4617461E4627481D
:10091000FFF7CEFF21682648FFF7CAFF6168254828
:10092000FFF7C6FFA1682448FFF7C2FFE16823482C
:10093000FFF7BEFF21692248FFF7BAFF616921482E
:10094000FFF7B6FFA1692048FFF7B2FFE1691F4832
:10095000FFF7AEFF1E48FFF7ABFF29461D48FFF724
:10096000A7FF1D4CE16A1D48FFF7A2FF216B1C4841
:10097000FFF79EFFE16B1B48FFF79AFF15F0800F12
:100980000AD115F4004F0CD11748FFF791FF0699D3
:100990001648FFF78DFFF8BD39461548FFF788FF69
:1009A000EFE731461348FFF783FFEDE78C2300089C
:1009B0009C230008AC230008BC230008CC230008BB
:1009C000DC230008EC230008FC2300080C240008AA
:1009D0001C2400082824000800ED00E0382400084A
:1009E000482400085824000888240008902400089F
:1009F000682400087824000883691A888A4201D094
:100A0000002070470268033A012A01D9002070478C
:100A1000023383610120704708B500F00DF8024AE7
:100A2000024B9A6008BD00BF0000000800ED00E026
:100A300008B500F009F808BD024B4FF000629A605B
:100A4000704700BF00ED00E0224B9B6803F00C03F1
:100A5000042B14D0082B16D01BB11F4B1F4A1A6051
:100A600002E01D4B1D4A1A601A4B9B68C3F3031327
:100A70001B4AD15C184A1368CB4013607047164B71
:100A8000184A1A60F0E7134B59685A6802F03F029F
:100A900011F4800F13D0134BB3FBF2F30D4A5268DD
:100AA000C2F3881202FB03F30A4A5268C2F30142FE
:100AB00001325200B3FBF2F3074A1360D4E7074B4D
:100AC000B3FBF2F3034A5268C2F3881202FB03F34A
:100AD000EAE700BF003802400C0000200024F400C8
:100AE000D424000800366E0103463038C0B209280D
:100AF00010D9A3F14102D2B2052A02D8373BD8B2AD
:100B00007047A3F16102D2B2052A02D8573BD8B28E
:100B1000704700207047000070B5C2B000240294F6
:100B2000FC22214603A800F0F5FE8DF807400B22B9
:100B30003D49012000F060F904223C49012000F009
:100B40005BF964E019223A49012000F055F942B0FE
:100B500070BD0A2C16D03B2C14D00DF107010120DA
:100B600000F086F99DF807403B2CF2D00A2CF0D01B
:100B7000FE2DE7D86E1C2046FFF7B6FF02AB585596
:100B80003546E6E7112D48D99DF809209DF80A3031
:100B90001B0643EA02739DF80B2043EA02539DF8BB
:100BA0000C2043EA02439DF80D0043EA00339DF810
:100BB0000E0043EA00239DF80F0043EA00139DF85E
:100BC00010009DF812109DF81320120642EA0172DF
:100BD0009DF8141042EA01529DF8151042EA0142B4
:100BE0009DF8161042EA01329DF8171042EA0122E0
:100BF0009DF8181042EA01129DF81910114318438C
:100C000000F084FA04220949012000F0F5F89DF86B
:100C100007303B2B9BD000259FE71B220549012075
:100C200000F0EAF893E700BFE4240008F02400088D
:100C3000F82400081425000808B54FF0E0234FF011
:100C40008072C3F8082D034B5B68034A1360984712
:100C500008BD00BF008000082C01002008B500F08E
:100C600067F90021022000F077F90421012000F04B
:100C700073F900F04DF902220921002000F094F9E7
:100C800002220A21002000F08FF90722092100200A
:100C900000F0D4F907220A21002000F0CFF900F07B
:100CA0000BF8012000F00CF900F01AFAFFF734FFFE
:100CB000FFF7C2FFFEE70000D0B54B4CE3686FF3CF
:100CC000CF33E360E3686FF30C33E360E3686FF303
:100CD000CB23E360E3686FF38A23E360E3686FF399
:100CE0000823E360E3686FF3C713E360E3686FF31F
:100CF0008613E360E36843F02003E360E3686FF387
:100D00000413E360E36843F00103E360E068C0F3C9
:100D1000C030C0F1020000F05BFB0022334B00F05A
:100D2000C1FB0022324B00F0BDFB02460B462CA15A
:100D3000D1E9000100F0E0FC00F0C6FD80B2000146
:100D4000A060E068C0F3C030C0F1020000F040FBDA
:100D50000022264B00F0A6FB0022254B00F0A2FB50
:100D600002460B461EA1D1E9000100F0C5FC064673
:100D70000F46E068C0F3C030C0F1020000F028FB6D
:100D800000221A4B00F08EFB0022194B00F08AFB68
:100D900002460B4612A1D1E9000100F0ADFC00F0C3
:100DA00093FD80B200F014FB02460B4630463946F4
:100DB00000F0C0F900220F4B00F074FB00F084FD3E
:100DC00000F00F03A0681843A060E36843F0080335
:100DD000E360E36843F00403E360D0BDAFF3008059
:100DE0000000000080846E4100100140000020409F
:100DF0000020FC400000304010B4022821D006281A
:100E00002ED001280ED010BC70470C5C154B5C60D6
:100E1000144B1B6813F0800FFAD00130C0B290421F
:100E2000F3D3F0E70020FAE70C5C0F4B5C600E4B4D
:100E30001B6813F0800FFAD00130C0B29042F3D398
:100E4000E1E70020FAE70C5C084B5C60074B1B688D
:100E500013F0800FFAD00130C0B29042F3D3D2E742
:100E60000020FAE700100140004400400014014057
:100E700002280DD0062814D0012800D070470D4B51
:100E80001B6813F0200FFAD00A4B5B680B70704799
:100E9000094B1B6813F0200FFAD0074B5B680B70EF
:100EA0007047064B1B6813F0200FFAD0034B5B68AA
:100EB0000B70E3E7001001400044004000140140C3
:100EC00002280AD006280ED0012800D07047094A0F
:100ED000D36843F40053D3607047074AD36843F4A0
:100EE0000053D3607047054AD36843F40053D3607E
:100EF000ECE700BF00100140004400400014014036
:100F000008B5024B1B68984708BD00BF30010020A0
:100F10004FF0E022136943F00403136170470000AF
:100F200008B5024B1B6803B1984708BD3401002087
:100F3000084A136843F001031360064B1B6813F063
:100F4000020FFAD0034B9A6822F003029A609A6863
:100F50009A60704700380240032822D8DFE800F08A
:100F6000020A121A0F48036C012202FA01F1194316
:100F7000016470470B48436C012202FA01F11943E6
:100F8000416470470748036B012202FA01F11943DB
:100F9000016370470348436B012202FA01F11943D0
:100FA0004163704700380240034620B9A1F10D00AB
:100FB000C0B2022806D9012B05D0012B18D0022B74
:100FC00026D02BB17047C81EC0B20128F5D8F9E76A
:100FD000174B18684FEA410C032101FA0CF120EA83
:100FE00001011960186802FA0CF101431960704799
:100FF00010B4104B1C6848000321814024EA010111
:1010000019601C6802FA00F12143196010BC704796
:10101000094B186849004FF0030C0CFA01FC20EA58
:101020000C001860186802FA01F10143196070475A
:10103000000002400004024000080240022847D895
:101040000F2945D80F2A43D810B407291CD80128E6
:101050000BD0022810D008B110BC70471D48036A9D
:1010600089008A4013430362F6E71B48036A89003C
:101070008A4013430362EFE7184C206A890002FAA2
:1010800001F303432362E7E701280DD0022815D0BE
:101090000028E1D10F4C606A01F00701890002FAD3
:1010A00001F303436362D7E70B4C606A01F0070169
:1010B000890002FA01F303436362CDE7074C606ADB
:1010C00001F007018B0002FA03F303436362C3E7F5
:1010D000704700BF000002400004024000080240C8
:1010E00008B5FFF799FA02210846FFF72DFB022108
:1010F0000320FFF729FB02210420FFF725FB022133
:101100000520FFF721FBFFF79FFA08BD38B504461D
:101110000D46FFF781FA2A46002321460220FFF7F9
:10112000CDFA0446FFF790FA204638BD81F0004121
:1011300002E000BF83F0004330B54FEA41044FEABC
:10114000430594EA050F08BF90EA020F1FBF54EA57
:10115000000C55EA020C7FEA645C7FEA655C00F0F3
:10116000E2804FEA5454D4EB5555B8BF6D420CDDC4
:101170002C4480EA020281EA030382EA000083EA47
:10118000010180EA020281EA0303362D88BF30BDE7
:1011900011F0004F4FEA01314FF4801C4CEA11313D
:1011A00002D0404261EB410113F0004F4FEA03339C
:1011B0004CEA133302D0524263EB430394EA050F27
:1011C00000F0A780A4F10104D5F1200E0DDB02FA96
:1011D0000EFC22FA05F2801841F1000103FA0EF22A
:1011E000801843FA05F359410EE0A5F120050EF1F0
:1011F000200E012A03FA0EFC28BF4CF0020C43FA21
:1012000005F3C01851EBE37101F0004507D54FF02D
:10121000000EDCF1000C7EEB00006EEB0101B1F57D
:10122000801F1BD3B1F5001F0CD349085FEA3000C3
:101230004FEA3C0C04F101044FEA445212F5800FCE
:1012400080F09A80BCF1004F08BF5FEA500C50F16B
:10125000000041EB045141EA050130BD5FEA4C0C4E
:10126000404141EB0101013C28BFB1F5801FE9D2AB
:1012700091F0000F04BF01460020B1FA81F308BFCE
:101280002033A3F10B03B3F120020CDA0C3208DD9A
:1012900002F1140CC2F10C0201FA0CF021FA02F175
:1012A0000CE002F11402D8BFC2F1200C01FA02F1E5
:1012B00020FA0CFCDCBF41EA0C019040E41AA2BF0A
:1012C00001EB0451294330BD6FEA04041F3C1CDAD2
:1012D0000C340EDC04F11404C4F1200220FA04F0F2
:1012E00001FA02F340EA030021FA04F345EA03019C
:1012F00030BDC4F10C04C4F1200220FA02F001FA5E
:1013000004F340EA0300294630BD21FA04F02946DF
:1013100030BD94F0000F83F4801306BF81F4801178
:101320000134013D4EE77FEA645C18BF7FEA655CEB
:1013300029D094EA050F08BF90EA020F05D054EABD
:10134000000C04BF1946104630BD91EA030F1EBFC2
:101350000021002030BD5FEA545C05D140004941C6
:1013600028BF41F0004130BD14F580043CBF01F5B9
:10137000801130BD01F0004545F0FE4141F470019F
:101380004FF0000030BD7FEA645C1ABF194610467A
:101390007FEA655C1CBF0B46024650EA013406BF7B
:1013A00052EA033591EA030F41F4002130BD00BF3A
:1013B00090F0000F04BF0021704730B54FF48064F7
:1013C00004F132044FF000054FF0000150E700BF78
:1013D00090F0000F04BF0021704730B54FF48064D7
:1013E00004F1320410F0004548BF40424FF00001C4
:1013F0003EE700BF42004FEAE2014FEA31014FEA07
:1014000002701FBF12F07F4393F07F4F81F0605155
:10141000704732F07F4208BF704793F07F4F04BFA0
:1014200041F40021704730B54FF4607401F000457D
:1014300021F000411CE700BF50EA010208BF7047DD
:1014400030B54FF000050AE050EA010208BF7047CE
:1014500030B511F0004502D5404261EB41014FF437
:10146000806404F132045FEA915C3FF4D8AE4FF03F
:1014700003025FEADC0C18BF03325FEADC0C18BF22
:10148000033202EBDC02C2F1200300FA03FC20FA73
:1014900002F001FA03FE40EA0E0021FA02F11444C0
:1014A000BDE600BF70B54FF0FF0C4CF4E06C1CEAD9
:1014B00011541DBF1CEA135594EA0C0F95EA0C0F4A
:1014C00000F0DEF82C4481EA030621EA4C5123EABD
:1014D0004C5350EA013518BF52EA033541F48011EC
:1014E00043F4801338D0A0FB02CE4FF00005E1FB9F
:1014F00002E506F00042E0FB03E54FF00006E1FBE9
:1015000003569CF0000F18BF4EF0010EA4F1FF042B
:10151000B6F5007F64F5407404D25FEA4E0E6D416B
:1015200046EB060642EAC62141EA55514FEAC5207C
:1015300040EA5E504FEACE2EB4F1FD0C88BFBCF5F8
:10154000E06F1ED8BEF1004F08BF5FEA500E50F1A9
:10155000000041EB045170BD06F0004646EA01016F
:1015600040EA020081EA0301B4EB5C04C2BFD4EBA1
:101570000C0541EA045170BD41F480114FF0000E9A
:10158000013C00F3AB8014F1360FDEBF002001F008
:10159000004170BDC4F10004203C35DA0C341BDC82
:1015A00004F11404C4F1200500FA05F320FA04F054
:1015B00001FA05F240EA020001F0004221F0004188
:1015C00010EBD37021FA04F642EB06015EEA430EFB
:1015D00008BF20EAD37070BDC4F10C04C4F120052B
:1015E00000FA04F320FA05F001FA04F240EA0200DE
:1015F00001F0004110EBD37041F100015EEA430EAF
:1016000008BF20EAD37070BDC4F1200500FA05F2CE
:101610004EEA020E20FA04F301FA05F243EA02034D
:1016200021FA04F001F0004121FA04F220EA02005C
:1016300000EBD3705EEA430E08BF20EAD37070BDA2
:1016400094F0000F0FD101F00046400041EB010182
:1016500011F4801F08BF013CF7D041EA060195F064
:10166000000F18BF704703F00046520043EB03031E
:1016700013F4801F08BF013DF7D043EA060370470B
:1016800094EA0C0F0CEA135518BF95EA0C0F0CD016
:1016900050EA410618BF52EA4306D1D181EA03015C
:1016A00001F000414FF0000070BD50EA410606BF56
:1016B0001046194652EA430619D094EA0C0F02D19B
:1016C00050EA013613D195EA0C0F05D152EA0336E0
:1016D0001CBF104619460AD181EA030101F00041FE
:1016E00041F0FE4141F470014FF0000070BD41F047
:1016F000FE4141F4780170BD70B54FF0FF0C4CF421
:10170000E06C1CEA11541DBF1CEA135594EA0C0F3F
:1017100095EA0C0F00F0A7F8A4EB050481EA030E8C
:1017200052EA03354FEA013100F088804FEA033373
:101730004FF0805545EA131343EA12634FEA022241
:1017400045EA111545EA10654FEA00260EF0004102
:101750009D4208BF964244F1FD0404F5407402D254
:101760005B084FEA3202B61A65EB03055B084FEAE5
:1017700032024FF480104FF4002CB6EB020E75EBE2
:10178000030E22BFB61A754640EA0C005B084FEA0A
:101790003202B6EB020E75EB030E22BFB61A754687
:1017A00040EA5C005B084FEA3202B6EB020E75EBD2
:1017B000030E22BFB61A754640EA9C005B084FEA4A
:1017C0003202B6EB020E75EB030E22BFB61A754657
:1017D00040EADC0055EA060E18D04FEA051545EA46
:1017E00016754FEA06164FEAC30343EA52734FEAEF
:1017F000C2025FEA1C1CC0D111F4801F0BD141EA68
:1018000000014FF000004FF0004CB6E711F4801FCC
:1018100004BF01430020B4F1FD0C88BFBCF5E06FAC
:101820003FF6AFAEB5EB030C04BFB6EB020C5FEABC
:10183000500C50F1000041EB045170BD0EF0004E11
:101840004EEA113114EB5C04C2BFD4EB0C0541EA43
:10185000045170BD41F480114FF0000E013C90E640
:1018600045EA060E8DE60CEA135594EA0C0F08BF04
:1018700095EA0C0F3FF43BAF94EA0C0F0AD150EA03
:1018800001347FF434AF95EA0C0F7FF425AF104696
:1018900019462CE795EA0C0F06D152EA03353FF4BE
:1018A000FDAE1046194622E750EA410618BF52EA3B
:1018B00043067FF4C5AE50EA41047FF40DAF52EA0F
:1018C00043057FF4EBAE12E74A0011D212F5001285
:1018D00011D20DD56FF47873B3EB62520ED44FEA88
:1018E000C12343F0004343EA505323FA02F0704708
:1018F0004FF00000704750EA013002D14FF0FF3046
:1019000070474FF000007047014B1868704700BFE8
:101910001000002002440346934200D1704703F8B0
:10192000011BF9E7034613F8012B002AFBD1181A13
:101930000138704730B51446002C9BB005461A4656
:1019400005DA8B2303604FF0FF301BB030BD4FF43E
:101950000273ADF80C3014BF04F1FF332346029339
:1019600005934FF6FF7300910491ADF80E30694670
:101970001E9B00F075F8431CBCBF8B232B60002C12
:10198000E3D0009B00221A70DFE7000007B5009348
:1019900013460A46014603480068FFF7CBFF03B031
:1019A0005DF804FB100000202DE9F0478E689E4290
:1019B00082460C4690461F4638D88A8912F4906FAA
:1019C00032D025680969A5EB0109656905EB450574
:1019D00005EBD57501334B446D109D4238BF1D4654
:1019E000530531D5294600F0B5FB064650B90C2306
:1019F000CAF80030A38943F04003A3814FF0FF30C1
:101A0000BDE8F08721694A4600F012FBA38923F460
:101A1000906343F08003A381266165614E44A5EB8A
:101A200009052660A5603E46BE4200D93E462068B4
:101A30003246414600F00AFBA3689B1BA360236863
:101A4000334423600020DBE72A4600F0F7FB06461C
:101A50000028E1D12169504600F012FBC7E70000E1
:101A60002DE9F04F98468B891B069DB007460D4621
:101A700014460ED50B6963B9402100F06BFB28605A
:101A8000286120B90C233B604FF0FF30D1E04023A8
:101A90006B610023099320238DF82930CDF80C8049
:101AA0003023DFF8A8818DF82A304FF00109234652
:101AB0009A4613F8012B0AB1252AF9D1BAEB040B87
:101AC0000BD05B46224629463846FFF76DFF0130B2
:101AD00000F0AA80099A5A4409929AF80030002B23
:101AE00000F0A28000234FF0FF32CDE905230AF178
:101AF000010A049307938DF853301A935446052234
:101B000014F8011B514800F043FA049AD8B9D006E2
:101B100044BF20238DF85330110744BF2B238DF889
:101B200053309AF800302A2B15D0079A54460020DB
:101B30004FF00A0C214611F8013B303B092B4ED9DE
:101B4000B0B1079214E0A0EB080309FA03F31343C2
:101B50000493A246D2E7039B191D1B680391002B37
:101B6000BBBF5B4242F0020207930793B8BF0492E7
:101B700023782E2B0CD163782A2B35D1039B1A1D89
:101B80001B680392002BB8BF4FF0FF33023405935C
:101B9000DFF8BCA021780322504600F0F9F940B1EB
:101BA0004023A0EB0A0003FA00F0049B0343013436
:101BB000049314F8011B27488DF82810062200F022
:101BC000E7F9002838D0244B1BBB039B073323F0D5
:101BD000070308330393099B3344099367E70CFB1E
:101BE00002320C460120A5E7002301340593194673
:101BF0004FF00A0C204610F8012B303A092A03D97D
:101C0000002BC5D00591C3E70CFB0121044601233D
:101C1000F0E703AB00932A46104B04A93846AFF314
:101C20000080421C0646D6D1AB895B063FF52CAF3F
:101C300009981DB0BDE8F08F03AB00932A46074B0F
:101C400004A9384600F07AF8EBE700BF2F2500081A
:101C5000352500083925000800000000A9190008F2
:101C60002DE9F047164699468A680B69DDF8208011
:101C70009342B8BF1346336091F8432007460C46A1
:101C80000AB1013333602368990642BF33680233D7
:101C90003360256815F0060506D104F1190AE368DA
:101CA00032689B1AAB4226DC94F84320131E22684C
:101CB00018BF012392062BD404F14302494638464B
:101CC000C04701301ED02368E568326803F0060380
:101CD000042B08BFAD1AA36822690CBF25EAE5757D
:101CE00000259342C4BF9B1AED1800261A34B54252
:101CF0001AD1002008E00123524649463846C04721
:101D0000013003D14FF0FF30BDE8F0870135C6E761
:101D1000E1185A1C302081F84300224494F8451001
:101D200082F843100233C7E701232246494638466A
:101D3000C0470130E6D00136D9E700002DE9FF4762
:101D40000F7E0C9D782F914680460C469A4601F1F5
:101D5000430207D8622F0AD8002F00F0D880582FEE
:101D600000F0A38004F1420584F842703AE0A7F144
:101D70006303152BF6D801A151F823F0D51D0008F7
:101D8000E91D0008651D0008651D0008651D0008A7
:101D9000651D0008E91D0008651D0008651D000897
:101DA000651D0008651D0008F51E0008191E0008C5
:101DB000D71E0008651D0008651D0008171F0008D4
:101DC000651D0008191E0008651D0008651D000836
:101DD000DF1E00082B681A1D1B682A6004F14205EB
:101DE00084F842300123A3E020682968060601F147
:101DF00004030AD50E682B60002E03DA2D237642E9
:101E000084F843305E480A2319E00E682B6010F016
:101E1000400F18BF36B2EFE72B682068191D296004
:101E2000010601D51E6802E04606FBD51E8854480F
:101E30006F2F0CBF08230A23002184F84310656824
:101E4000A560002DA2BF216821F0040121600EB918
:101E5000002D4DD01546B6FBF3F103FB1167C75DAE
:101E600005F8017D3746BB420E46F4D9082B0BD14D
:101E70002368DE0708D5236961689942DEBF3023F5
:101E800005F8013C05F1FF35521B2261CDF800A099
:101E90004B4603AA21464046FFF7E2FE01304CD1F3
:101EA0004FF0FF3004B0BDE8F087354881F8457049
:101EB0002968236851F8046B29601D0614D5DF07D3
:101EC00044BF43F0200323601EB9236823F020039E
:101ED00023601023B0E7236843F0200323607823B6
:101EE000284884F84530E3E7590648BFB6B2E6E72C
:101EF0001546BBE72B6826686169181D2860350602
:101F00001B6801D5196002E07006FBD5198000231B
:101F100023611546BAE72B681A1D2A601D6862689E
:101F20000021284600F034F808B1401B6060636867
:101F30002361002384F84330A8E723692A464946F1
:101F40004046D0470130ABD023689B0713D4E068EC
:101F5000039B9842B8BF1846A4E70123324649467E
:101F60004046D04701309BD00135E36803995B1AA6
:101F7000AB42F2DCEBE7002504F11906F5E700BF00
:101F80004025000851250008000000000000000066
:101F900001F0FF01102A2BDB10F0070F08D010F81A
:101FA000013B013A8B422DD010F0070F42B3F6D11E
:101FB000F0B441EA012141EA014122F007047FF037
:101FC00000070023F0E80256083C85EA010586EA8E
:101FD000010685FA47F5A3FA87F586FA47F6A5FACA
:101FE00087F68EB9EED1F0BC01F0FF0102F00702D6
:101FF00032B110F8013B013A83EA010313B1F8D181
:102000000020704701387047002D06BF3546033861
:10201000073815F0010F07D1013015F4807F02BF9A
:10202000013015F4C03F0130F0BC0138704700BFEB
:102030000A44914200F1FF3300D1704710B511F806
:10204000014B03F8014F9142F9D110BD884210B500
:1020500001EB020402D98442234607D8431EA14261
:1020600008D011F8012B03F8012FF8E702440146CC
:102070008A4200D110BD13F8014D02F8014DF7E777
:1020800038B50546002941D051F8043C0C1F002BFF
:10209000B8BFE41800F012F91D4A136833B9636041
:1020A00014602846BDE8384000F00EB9A34208D9B4
:1020B000206821188B4201BF19685B6809182160EC
:1020C000EDE71A465B680BB1A342FAD911685018C4
:1020D000A0420BD120680144501883421160E0D126
:1020E00018685B68536001441160DAE702D90C2379
:1020F0002B60D6E7206821188B4204BF19685B6803
:10210000636004BF091821605460CAE738BD00BF8E
:102110003801002070B50E4E0C463168054611B9E5
:1021200000F0BCF830602146284600F0B7F8431CA8
:102130000AD0C41C24F00304A04207D0211A284668
:1021400000F0ACF8013001D14FF0FF34204670BDF3
:102150003C0100202DE9F041CD1C25F00305083598
:102160000C2D38BF0C25002D074601DBA94205D9EF
:102170000C233B6000263046BDE8F0812E4E00F077
:102180009DF833681C4634BB29463846FFF7C2FF2A
:10219000431C04464DD134682646002E40D12368A6
:1021A0003146384604EB030800F078F880453AD110
:1021B000216803356D1A25F0030508350C2D38BF4D
:1021C0000C2529463846FFF7A5FF01302BD02368A0
:1021D0002B4423600EE02268521B1ED40B2A16D912
:1021E0006119A342256018BF5960636808BF316058
:1021F00062514B60384604F10B0600F065F826F09A
:102200000706231DF21AB6D09B1BA350B3E76268E2
:10221000A3420CBF32605A60ECE723466468B2E721
:1022200034467668B9E70C233B60384600F04CF83A
:10223000A1E72560DEE700BF380100202DE9F0416D
:10224000804614460E4621B9BDE8F0411146FFF71D
:1022500081BF2AB9FFF714FF25462846BDE8F08163
:1022600000F038F88442074602D8B4EB500F12D879
:1022700021464046FFF76EFF05460028EDD0BC42E0
:102280002246314628BF3A46FFF7D2FE3146404645
:10229000FFF7F6FEE1E73546DFE7000038B5064D0B
:1022A0000023044608462B60FEF7A2FA431C02D125
:1022B0002B6803B1236038BDA4000020014800F062
:1022C00011B800BF40010020014800F00CB800BF69
:1022D0004001002051F8043C181F002BBCBF0B58D4
:1022E000C0187047704770472E2E2F73797374652E
:1022F0006D2F7372632F73746D333266342D686182
:102300006C2F73746D3332663478785F68616C5FFC
:10231000666C6173682E63002E2E2F73797374655B
:102320006D2F7372632F73746D333266342D686151
:102330006C2F73746D3332663478785F68616C5FCC
:10234000666C6173685F65782E6300006173736506
:1023500072745F706172616D2829206661696C65B5
:10236000643A2066696C6520222573222C206C69F2
:102370006E652025640A000061626F727428292C42
:102380002065786974696E672E2E2E005374616320
:102390006B206672616D653A0A00000020523020A1
:1023A0003D2020253038580A0000000020523120FE
:1023B0003D2020253038580A0000000020523220ED
:1023C0003D2020253038580A0000000020523320DC
:1023D0003D2020253038580A0000000020523132BC
:1023E000203D20253038580A00000000204C5220A3
:1023F0003D2020253038580A00000000205043209E
:102400003D2020253038580A00000000205053524B
:10241000203D20253038580A000000004653522F36
:102420004641523A0A0000002043465352203D20C4
:1024300020253038580A00002048465352203D20BD
:1024400020253038580A00002044465352203D20B1
:1024500020253038580A00002041465352203D20A4
:1024600020253038580A0000204D4D464152203D6D
:1024700020253038580A00002042464152203D2095
:1024800020253038580A00004D6973630A000000A7
:10249000204C522F4558435F52455455524E3D20D3
:1024A000253038580A0000005B4861726446617547
:1024B0006C745D0A000000005B4275734661756CC8
:1024C000745D0A005B55736167654661756C745D88
:1024D0000A000000000000000000000001020304E8
:1024E000060708095354415254424F4F540D0A00F5
:1024F0004F4B0D0A000000004552524F523A204205
:102500007566666572204F766572666C6F770D0A28
:10251000000000004552524F523A20496E737566D2
:1025200066696369656E7420446174610D0A0023F5
:102530002D302B2000686C4C0065666745464700CF
:1025400030313233343536373839414243444546E9
:10255000003031323334353637383961626364657F
:02256000660013
:1025640078563412A8000020000000000024F40073
:102574001400002000000000000000000000000023
:102584000000000000000000000000000000000047
:102594000000000000000000000000000000000037
:1025A4000000000000000000000000000000000027
:1025B4000000000000000000000000000000000017
:1025C4000000000000000000000000000000000007
:0825D40000000000325476986B
:040000050800019559
:00000001FF
